:020000040800F2
:10000000C8C9022489A902082D9802082F9802085D
:100010003198020833980208359802080000000061
:10002000000000000000000000000000B9AB020862
:100030003798020800000000A17C0008AB7B000894
:10004000BDAB0208C1AB0208C5AB0208C9AB0208D0
:10005000CDAB0208D1AB0208D5AB0208D9AB020880
:10006000DDAB0208E1AB0208E5AB0208E9AB020830
:10007000EDAB0208F1AB0208F5AB0208F9AB0208E0
:10008000FDAB020801AC020805AC020809AC02088D
:100090000DAC020811AC020815AC020819AC02083C
:1000A0001DAC020821AC020825AC020829AC0208EC
:1000B0002DAC02083998020831AC020835AC0208B0
:1000C00039AC02083DAC020841AC020845AC02085C
:1000D00049AC02084DAC020851AC020855AC02080C
:1000E00059AC02085DAC02080000000061AC0208D7
:1000F00065AC020869AC02086DAC020871AC02087C
:1001000075AC02084398020879AC02087DAC02087D
:1001100081AC020885AC020889AC02088DAC0208EB
:1001200091AC020895AC020899AC02089DAC02089B
:10013000A1AC0208A5AC0208A9AC0208ADAC02084B
:1001400000000000000000000000000000000000AF
:10015000B1AC0208B5AC0208B9AC0208BDAC0208EB
:10016000C1AC0208C5AC0208C9AC0208CDAC02089B
:10017000D1AC0208D5AC0208D9AC0208DDAC02084B
:10018000E1AC0208E5AC0208E9AC0208EDAC0208FB
:10019000F1AC0208F5AC0208F9AC0208FDAC0208AB
:1001A00001AD020805AD020809AD02080DAD020857
:1001B00011AD020815AD020819AD02081DAD020807
:1001C00021AD020825AD02084D9802085798020893
:1001D00029AD0208619802082DAD020831AD020870
:1001E00035AD020839AD02083DAD020841AD020847
:1001F00045AD020849AD02084DAD020851AD0208F7
:1002000055AD020859AD02085DAD020861AD0208A6
:1002100065AD020869AD02086DAD020871AD020856
:1002200075AD020879AD02087DAD0208000000003E
:1002300081AD020885AD02080000000089AD02080A
:100240008DAD020891AD020895AD020899AD020886
:100250009DAD0208A1AD0208A5AD0208A9AD020836
:10026000ADAD0208B1AD0208B5AD0208B9AD0208E6
:10027000BDAD0208C1AD0208C5AD02080000000016
:10028000C9AD0208CDAD0208D1AD020800000000E2
:1002900000000000D5AD0208F8B5040000260025D6
:1002A0002068000134D5606E002809D0B0F5801FA9
:1002B0000FD0B0F5001F12D0B0F5401F16D016E0D9
:1002C000DFF8A40A006850F40030DFF89C1A0860D8
:1002D0000EE00221201D01F0D5FB060008E00221FE
:1002E00014F1240001F066FC060001E000E00126A4
:1002F0003000C0B200280AD1DFF8700A016831F47A
:100300004011606E0143DFF8640A016000E03500CF
:100310002068C00532D5606D002806D0022813D0B1
:100320000CD3042818D016D317E0DFF83C0A006875
:1003300050F40030DFF8301A08600FE00021201D73
:1003400001F0A0FB060009E0002114F1240001F0F7
:1003500031FC060002E001E000E001263000C0B2FE
:1003600000280AD1DFF8040A0168C908C900606DD5
:100370000143DFF8F809016000E0350020688005DE
:1003800035D5A06D002809D0402810D0802814D081
:10039000C02819D0B0F5807F17D017E0DFF8C80962
:1003A000006850F40030DFF8C01908600FE0002149
:1003B000201D01F067FB060009E0002114F1240074
:1003C00001F0F8FB060002E001E000E00126300049
:1003D000C0B200280AD1DFF89409016831F4E07155
:1003E000A06D0143DFF88409016000E0350020685A
:1003F00040053AD5D4F8A40000280CD0B0F5001F71
:1004000012D0B0F5800F15D0B0F5C00F19D0B0F5EF
:10041000000F17D017E0DFF85009006850F40030E3
:10042000DFF8441908600FE00021201D01F02AFBCD
:10043000060009E0002114F1240001F0BBFB0600D6
:1004400002E001E000E001263000C0B200280BD13C
:10045000DFF81C09016831F46001D4F8A4000143FD
:10046000DFF80C09016000E03500206800053AD58E
:10047000D4F8A80000280CD0B0F1807F12D0B0F1E1
:10048000007F15D0B0F1407F19D0B0F1806F17D048
:1004900017E0DFF8D408006850F40030DFF8C8181F
:1004A00008600FE00021201D01F0ECFA060009E0D1
:1004B000002114F1240001F07DFB060002E001E0C0
:1004C00000E001263000C0B200280BD1DFF8A00800
:1004D000016831F0E061D4F8A8000143DFF890082A
:1004E000016000E03500206880012BD5A06C002859
:1004F00016D0102804D020280BD030280FD010E0C0
:10050000DFF86408006850F40030DFF85C18086019
:1005100008E00221201D01F0B5FA060002E001E02A
:1005200000E001263000C0B200280AD1DFF84408FC
:10053000016831F03001A06C0143DFF83808016038
:1005400000E035002068C00438D5E06D00280CD0EC
:10055000B0F5805F12D0B0F5005F15D0B0F5405F08
:1005600019D0B0F5804F17D017E0DFF8FC0700680E
:1005700050F40030DFF8F01708600FE00021201D74
:1005800001F080FA060009E0002114F1240001F0D6
:1005900011FB060002E001E000E001263000C0B2DD
:1005A00000280AD1DFF8C407016831F4E041E06DAA
:1005B0000143DFF8B807016000E0350020688004DF
:1005C00034D5206E00280FD0B0F5803F0DD0B0F5A7
:1005D000003F10D0B0F5403F14D0B0F5802F12D0BE
:1005E000B0F5A02F10D010E010E00121201D01F087
:1005F00049FA06000AE0012114F1240001F0DAFAB8
:10060000060003E002E001E000E001263000C0B295
:1006100000280AD1DFF85407016831F4E021206E88
:100620000143DFF84807016000E03500206840041E
:1006300036D5D4F8AC0000280FD0B0F1805F0DD0D3
:10064000B0F1005F10D0B0F1405F14D0B0F1804F36
:1006500012D0B0F1A04F10D010E010E00121201D09
:1006600001F010FA06000AE0012114F1240001F063
:10067000A1FA060003E002E001E000E001263000FC
:10068000C0B200280BD1DFF8E806016831F0E04184
:10069000D4F8AC000143DFF8D806016000E0350073
:1006A000206800042AD5E06E002815D0B0F1805FE4
:1006B00003D0B0F1005F09D00FE0DFF8AC060068AE
:1006C00050F40030DFF8A016086007E00121201D7B
:1006D00001F0D8F9060001E000E001263000C0B2C8
:1006E00000280AD1DFF88406016831F04051E06E3D
:1006F0000143DFF87806016000E035002068C001A2
:100700002AD5606C002815D002280CD002D303280B
:100710000FD010E0DFF85006006850F40030DFF82A
:100720004816086008E00221201D01F0ABF9060020
:1007300002E001E000E001263000C0B200280AD14A
:10074000DFF83006016889088900606C0143DFF832
:100750002406016000E035002068400240F18480FA
:10076000DFF81406006850F48070DFF80C1608609B
:1007700001F0CCFA0700DFF800060068C00505D4D8
:1007800001F0C4FAC01B6528F5D303263000C0B2BF
:10079000002868D1DFF8E405006810F44070D4F850
:1007A000B01011F44071884217D0DFF8D00500680E
:1007B00030F44070DFF8C415096851F48031DFF877
:1007C000BC251160DFF8B415096831F48031DFF819
:1007D000AC251160DFF8A4150860D4F8B000B0F5BE
:1007E000807F0FD101F092FA0700DFF890050068D2
:1007F000800707D401F08AFAC01B41F28931884290
:10080000F3D303263000C0B200282AD1D4F8B000B8
:1008100010F44070B0F5407F0FD1DFF86405006838
:1008200030F47C50D4F8B010DFF8582512EA1112D9
:100830001043DFF84C15086007E0DFF84405006856
:1008400030F47C50DFF838150860DFF830050068B8
:10085000D4F8B0100905090D0843DFF82015086029
:1008600002E0350000E035002078C0072FD5A06FEA
:1008700000280AD0082809D010280DD0182812D036
:10088000202811D0282810D010E010E00121201DD0
:1008900001F0F8F806000AE0012114F1240001F04B
:1008A00089F9060003E002E001E000E001263000E3
:1008B000C0B200280AD1DFF8D004016831F0380155
:1008C000A06F0143DFF8C004016000E0350020782C
:1008D00080072DD5606F002808D002280DD006D3E0
:1008E000042812D010D3052810D010E010E0012108
:1008F000201D01F0C7F806000AE0012114F12400D0
:1009000001F058F9060003E002E001E000E00126F2
:100910003000C0B200280AD1DFF86C040168C908B1
:10092000C900606F0143DFF86004016000E035003A
:10093000207840072FD5D4F89000002808D002284E
:100940000DD006D3042812D010D3052810D010E003
:1009500010E00121201D01F095F806000AE00121B8
:1009600014F1240001F026F9060003E002E001E0A2
:1009700000E001263000C0B200280BD1DFF8F00300
:100980000168C908C900D4F890000143DFF8E0030A
:10099000016000E035002078800636D5D4F88C0060
:1009A00000280FD0B0F1805F0DD0B0F1005F10D003
:1009B000B0F1405F14D0B0F1804F12D0B0F1A04F31
:1009C00010D010E010E00021201D01F05BF80600BF
:1009D0000AE0022114F1240001F0ECF8060003E023
:1009E00002E001E000E001263000C0B200280BD197
:1009F000DFF89403016831F0E041D4F88C00014342
:100A0000DFF88403016000E035002078400636D529
:100A1000D4F8980000280FD0B0F5806F0DD0B0F555
:100A2000006F10D0B0F5406F14D0B0F5805F12D0D9
:100A3000B0F5A05F10D010E010E00021201D01F003
:100A400021F806000AE0022114F1240001F0B2F8B6
:100A5000060003E002E001E000E001263000C0B241
:100A600000280BD1DFF80803016831F4E051D4F815
:100A700098000143DFF8F802016000E035002078BB
:100A8000000634D5D4F89C0000280FD0B0F5005FE4
:100A90000DD0B0F5804F10D0B0F5C04F14D0B0F5E8
:100AA000004F12D0B0F5204F10D010E010E0002120
:100AB000201D00F0E7FF06000AE0022114F12400E7
:100AC00001F078F8060003E002E001E000E0012612
:100AD0003000C0B2002809D1A548016831F4604156
:100AE000D4F89C000143A248016000E03500207862
:100AF000000717D5D4F88000B0F5805F07D1022138
:100B000014F1240001F056F8002800D00125DFF888
:100B10007802016831F44051D4F880000143DFF8D5
:100B2000680201602078C00615D5D4F89400B0F5AD
:100B3000807F07D1022114F1240001F03BF8002846
:100B400000D001258A48016831F44071D4F894003E
:100B50000143874801602068000328D5D4F8A0002D
:100B6000002806D0B0F5803F09D0B0F5003F0DD089
:100B70000DE00021201D00F085FF060008E00221A5
:100B800014F1240001F016F8060001E000E001264F
:100B90003000C0B2002809D17548016831F44031F5
:100BA000D4F8A00001437248016000E035002068DD
:100BB00040032CD5D4F88400B0F5801F06D0B0F5E2
:100BC000001F0AD0B0F5401F0ED00EE06648006846
:100BD00050F400306449086008E0012114F1240059
:100BE00000F0E8FF060001E000E001263000C0B29E
:100BF00000280BD1DFF89001016831F44011D4F8DE
:100C000084000143DFF88001016000E035002068C6
:100C1000C00324D5E06C002803D0B0F5803F07D096
:100C20000CE05148006850F400304F49086006E07D
:100C30000221201D00F026FF060000E00126300002
:100C4000C0B200280AD1DFF82C01016831F48031EC
:100C5000E06C0143DFF81C01016000E03500206812
:100C6000800007D5022114F1240000F0A3FF002822
:100C700000D001252068800325D5E06F002812D020
:100C8000B0F5807F06D0B0F5007F0AD0B0F5407F88
:100C900008D009E03448006850F400303249086058
:100CA00003E002E001E000E001263000C0B20028CD
:100CB00008D13548016831F44071E06F0143324892
:100CC000016000E035002068C00207D527480168B0
:100CD00021F00041206F0143244801602068C000DA
:100CE00008D52748016831F48041D4F8B4000143A5
:100CF000234801602068800207D51C48016831F054
:100D00008071A06E014319480160206840000CD535
:100D10001B48006830F40040194908601848016811
:100D2000D4F8B8000143164801602068002807D5B0
:100D30001048016831F04051206D01430D480160B9
:100D40002068000208D51048016831F44001D4F849
:100D5000880001430C480160EDB2002D01D1002054
:100D600000E00120F2BD00002C440258504402581B
:100D7000584402584C4402580048025870440258E3
:100D800010440258CFFFFF005444025800B589B008
:100D9000B0F5807F63D1DFF89008006810F007009D
:100DA000002806D002281CD00FD3042825D051D308
:100DB00053E0DFF8880A0068800104D506A800F037
:100DC0004FFD079800E000200AE3DFF8700A006892
:100DD000000104D5684600F015FB009800E00020F3
:100DE000FEE2DFF8580A0068800004D503A800F08E
:100DF0001FFC039800E00020F2E2DFF8480A0068D8
:100E000010F04050DFF8341A096849070AD5002865
:100E100008D1DFF8380ADFF8241A0968C1F3C101E4
:100E2000C84016E0DFF8141A0968C90505D5B0F105
:100E3000805F02D1DFF81C0A0BE0DFF8001A0968B6
:100E4000890305D5B0F1005F02D1DFF80C0A00E09C
:100E50000020C5E2DFF8040AC2E20020C0E2B0F5DB
:100E6000007F66D1DFF8C007006810F4E07000284A
:100E700009D0402813D080281DD0C02854D0B0F508
:100E8000807F24D053E0DFF8B4090068800104D5E6
:100E900006A800F0E5FC079800E00020A0E2DFF8DB
:100EA0009C090068000104D5684600F0ABFA009880
:100EB00000E0002094E2DFF884090068800004D597
:100EC00003A800F0B5FB039800E0002088E2DFF8FB
:100ED0007409006810F04050DFF86019096849078C
:100EE0000AD5002808D1DFF86409DFF8501909682D
:100EF000C1F3C101C84016E0DFF840190968C9050F
:100F000005D5B0F1805F02D1DFF848090BE0DFF8CA
:100F10002C190968890305D5B0F1005F02D1DFF80B
:100F2000380900E000205BE2DFF8300958E20020D9
:100F300056E2B0F5806F69D1DFF8E406006810F47E
:100F4000600000280CD0B0F5001F15D0B0F5800F60
:100F50001ED0B0F5C00F54D0B0F5000F24D053E030
:100F6000DFF8D8080068800104D506A800F078FCF6
:100F7000079800E0002033E2DFF8C00800680001B5
:100F800004D5684600F03EFA009800E0002027E211
:100F9000DFF8A8080068800004D503A800F048FB2B
:100FA000039800E000201BE2DFF89808006810F0CA
:100FB0004050DFF88818096849070AD5002808D189
:100FC000DFF88808DFF874180968C1F3C101C84068
:100FD00016E0DFF868180968C90505D5B0F1805F2B
:100FE00002D1DFF870080BE0DFF8501809688903B8
:100FF00005D5B0F1005F02D1DFF85C0800E0002009
:10100000EEE1DFF85808EBE10020E9E1B0F5006F10
:1010100069D1DFF80C06006810F0E06000280CD001
:10102000B0F1807F15D0B0F1007F1ED0B0F1407FCD
:1010300054D0B0F1806F24D053E0DFF8000800688E
:10104000800104D506A800F00BFC079800E0002002
:10105000C6E1DFF8E8070068000104D5684600F043
:10106000D1F9009800E00020BAE1DFF8D00700686D
:10107000800004D503A800F0DBFA039800E000200C
:10108000AEE1DFF8C007006810F04050DFF8AC17A1
:10109000096849070AD5002808D1DFF8B007DFF84A
:1010A0009C170968C1F3C101C84016E0DFF88C172E
:1010B0000968C90505D5B0F1805F02D1DFF8940752
:1010C0000BE0DFF878170968890305D5B0F1005FF8
:1010D00002D1DFF8840700E0002081E1DFF87C071F
:1010E0007EE100207CE1B0F5805F69D1DFF8380552
:1010F000006810F4E04000280CD0B0F5805F15D0F7
:10110000B0F5005F1ED0B0F5405F54D0B0F5804F11
:1011100024D053E0DFF824070068800104D506A836
:1011200000F09EFB079800E0002059E1DFF80C0773
:101130000068000104D5684600F064F9009800E0FA
:1011400000204DE1DFF8F4060068800004D503A814
:1011500000F06EFA039800E0002041E1DFF8E406B9
:10116000006810F04050DFF8D416096849070AD526
:10117000002808D1DFF8D406DFF8C0160968C1F3EB
:10118000C101C84016E0DFF8B4160968C90505D5E5
:10119000B0F1805F02D1DFF8BC060BE0DFF89C16EF
:1011A0000968890305D5B0F1005F02D1DFF8A80610
:1011B00000E0002014E1DFF8A40611E100200FE1B7
:1011C000B0F5002F54D1DFF85804006810F4403017
:1011D000002806D0B0F5803F0FD0B0F5003F18D002
:1011E00044E0DFF858060068000104D5684600F0C6
:1011F00009F9009800E00020F2E0DFF840060068FE
:10120000800004D503A800F013FA059800E0002040
:10121000E6E0DFF83006006810F04050DFF81C16FA
:10122000096849070AD5002808D1DFF82006DFF849
:101230000C160968C1F3C101C84016E0DFF8FC15BF
:101240000968C90505D5B0F1805F02D1DFF8040651
:101250000BE0DFF8E8150968890305D5B0F1005FF8
:1012600002D1DFF8F40500E00020B9E00020B7E08B
:10127000B0F5803F24D1DFF8CC05006810F4803051
:10128000002803D0B0F5803F0CD017E0DFF8AC05A4
:101290000068800104D506A800F0E2FA079800E093
:1012A00000209DE0DFF894050068000104D5684641
:1012B00000F0A8F8029800E0002091E000208FE004
:1012C000B0F5804F57D1DFF85803006810F0E040C8
:1012D00000280FD0B0F1805F0FD0B0F1005F18D0C0
:1012E000B0F1405F21D0B0F1804F2ED0B0F1A04FCF
:1012F00035D03EE000F076F872E0DFF84005006897
:10130000000104D5684600F07DF8019800E0002057
:1013100066E0DFF828050068800004D503A800F027
:1013200087F9049800E000205AE0DFF81005006813
:10133000400708D5DFF81405DFF800150968C1F388
:10134000C101C84000E000204AE0DFF8F004006876
:10135000C00502D5DFF8FC0400E0002040E0DFF823
:10136000DC040068800302D5DFF8EC0400E0002014
:1013700036E0002034E0B0F5004F30D1AA480068D4
:1013800010F04050002806D0B0F1805F0DD0B0F1D1
:10139000005F16D021E0DFF8A4040068800302D5C6
:1013A000DFF8B40400E000201AE0DFF890040068E1
:1013B000800104D506A800F053FA079800E0002049
:1013C0000EE0DFF878040068000104D5684600F0FC
:1013D00019F8019800E0002002E0002000E0002061
:1013E00009B000BD80B500F016FFDFF8C417DFF8C4
:1013F000F0281268C2F30212895C11F01F01C84084
:1014000002BD000010B482490B6813F00303804949
:101410000968C1F305317F4A1268C2F30014DFF88E
:10142000C4281268C2F3CC02544300EE104AB8EE4E
:10143000400A002900F0E480002B03D0022B6AD080
:101440004BD386E0DFF8F4231268920627D5DFF845
:10145000FC23DFF8E8331B68C3F3C103DA4000EE76
:10146000902AF8EE600A01EE101AB8EE411AC0EEAA
:10147000810ADFF874180968C905C90D01EE101A50
:10148000B8EE411ADFED641A80EE210A31EE000A4F
:10149000B7EE001A30EE010A20EE800A1CE000EEE2
:1014A000901AF8EE600A9FED5D1AC1EE200ADFF88F
:1014B00038180968C905C90D01EE101AB8EE411AAD
:1014C000DFED551A80EE210A31EE000AB7EE001A60
:1014D00030EE010A20EE800A58E000EE901AF8EE95
:1014E000600A9FED501AC1EE200ADFF8FC17096868
:1014F000C905C90D01EE101AB8EE411ADFED461A02
:1015000080EE210A31EE000AB7EE001A30EE010A31
:1015100020EE800A3AE000EE901AF8EE600A9FEDA5
:10152000431AC1EE200ADFF8C0170968C905C90DC2
:1015300001EE101AB8EE411ADFED371A80EE210ADB
:1015400031EE000AB7EE001A30EE010A20EE800AF2
:101550001CE000EE901AF8EE600A9FED321AC1EE20
:10156000200ADFF884170968C905C90D01EE101AB1
:10157000B8EE411ADFED281A80EE210A31EE000A9A
:10158000B7EE001A30EE010A20EE800ADFF8581795
:101590000968C1F3462100EE901AF8EE600AB7EE32
:1015A000001A70EE810AC0EE200AFCEEE00AC0EDDF
:1015B000000ADFF834170968C1F3064100EE901AFB
:1015C000F8EE600AB7EE001A70EE810AC0EE200A4B
:1015D000FCEEE00AC0ED010ADFF80C170968C1F360
:1015E000066100EE901AF8EE600AB7EE001A70EE8F
:1015F000810A80EE200ABCEEC00A80ED020A05E0F6
:1016000000210160002141600021816010BC704711
:10161000284402582C440258000000460024744C10
:10162000584402580024744A5044025820BCBE4B0F
:1016300010B4DFF8B8160B6813F00303DFF8AC162C
:101640000968C1F30551DFF8A8261268C2F3002427
:10165000DFF8A0261268C2F3CC02544300EE104A11
:10166000B8EE400A002900F0E180002B03D0022BE5
:1016700067D048D383E0714A1268920625D5734A31
:101680006E4B1B68C3F3C103DA4000EE902AF8EEFC
:10169000600A01EE101AB8EE411AC0EE810ADFF8B6
:1016A00058160968C905C90D01EE101AB8EE411A9D
:1016B000DFED631A80EE210A31EE000AB7EE001A60
:1016C00030EE010A20EE800A1CE000EE901AF8EEDF
:1016D000600A9FED5D1AC1EE200ADFF81C1609684A
:1016E000C905C90D01EE101AB8EE411ADFED541A02
:1016F00080EE210A31EE000AB7EE001A30EE010A40
:1017000020EE800A58E000EE901AF8EE600A9FED95
:10171000501AC1EE200ADFF8E0150968C905C90DA5
:1017200001EE101AB8EE411ADFED451A80EE210ADB
:1017300031EE000AB7EE001A30EE010A20EE800A00
:101740003AE000EE901AF8EE600A9FEDCA1AC1EE78
:10175000200ADFF8A4150968C905C90D01EE101AA1
:10176000B8EE411ADFED361A80EE210A31EE000A9A
:10177000B7EE001A30EE010A20EE800A1CE000EEFF
:10178000901AF8EE600A9FED321AC1EE200ADFF8D7
:1017900068150968C905C90D01EE101AB8EE411A9D
:1017A000DFED271A80EE210A31EE000AB7EE001AAB
:1017B00030EE010A20EE800ADFF83C150968C1F31B
:1017C000462100EE901AF8EE600AB7EE001A70EEAD
:1017D000810AC0EE200AFCEEE00AC0ED000ADFF844
:1017E00018150968C1F3064100EE901AF8EE600A78
:1017F000B7EE001A70EE810AC0EE200AFCEEE00A95
:10180000C0ED010ADFF8F0140968C1F3066100EECB
:10181000901AF8EE600AB7EE001A70EE810A80EEB8
:10182000200ABCEEC00A80ED020A05E0002101603A
:10183000002141600021816010BC704700440258C3
:10184000000000464C4402580024744C0090D00321
:101850000024744A00093D0040787D010080BB00EF
:1018600010B4DFF888140B6813F00303DFF87C145E
:101870000968C1F30511DFF87824146814F0010435
:10188000DFF878241268C2F3CC02544300EE104A09
:10189000B8EE400A002900F0E480002B03D0022BB0
:1018A0006AD04BD386E0DFF858241268920627D519
:1018B000DFF85024DFF848341B68C3F3C103DA4073
:1018C00000EE902AF8EE600A01EE101AB8EE411A06
:1018D000C0EE810ADFF830140968C905C90D01EEB0
:1018E000101AB8EE411ADFED641A80EE210A31EECB
:1018F000000AB7EE001A30EE010A20EE800A1CE062
:1019000000EE901AF8EE600A9FED5C1AC1EE200A14
:10191000DFF8F4130968C905C90D01EE101AB8EE15
:10192000411ADFED551A80EE210A31EE000AB7EEBA
:10193000001A30EE010A20EE800A58E000EE901AFC
:10194000F8EE600A9FED4E1AC1EE200ADFF8B813D8
:101950000968C905C90D01EE101AB8EE411ADFED8C
:10196000461A80EE210A31EE000AB7EE001A30EE78
:10197000010A20EE800A3AE000EE901AF8EE600AC2
:101980009FED3C1AC1EE200ADFF87C130968C905F7
:10199000C90D01EE101AB8EE411ADFED371A80EECC
:1019A000210A31EE000AB7EE001A30EE010A20EEED
:1019B000800A1CE000EE901AF8EE600A9FED2F1AE4
:1019C000C1EE200ADFF840130968C905C90D01EE10
:1019D000101AB8EE411ADFED281A80EE210A31EE16
:1019E000000AB7EE001A30EE010A20EE800ADFF896
:1019F00018130968C1F3462100EE901AF8EE600A48
:101A0000B7EE001A70EE810AC0EE200AFCEEE00A82
:101A1000C0ED000ADFF8F0120968C1F3064100EEDC
:101A2000901AF8EE600AB7EE001A70EE810AC0EE66
:101A3000200AFCEEE00AC0ED010ADFF8CC120968CA
:101A4000C1F3066100EE901AF8EE600AB7EE001AD4
:101A500070EE810A80EE200ABCEEC00A80ED020A18
:101A600005E000210160002141600021816010BC7F
:101A70007047000020BCBE4B000000460024744CA0
:101A80000024744AF8B506000C0000259748006849
:101A900010F00300032801D1012087E09848006876
:101AA00030F080609649086000F030F907009448F3
:101AB0000068000106D500F029F9C01B0328F6D301
:101AC000032073E08948006830F47C30316850EAC4
:101AD0000130864908607068401EC005C00DB168BD
:101AE000491E490211F47E410843F168491E090468
:101AF00011F4FE0108433169491E090611F0FE4147
:101B00000843794908607A48016831F0C00170697A
:101B10000143774801607648016831F02001B069DF
:101B20000143734801607248006830F0100070494A
:101B300008606C4800686FF3CF00F16950EAC1009B
:101B4000684908606A48006850F0100068490860F9
:101B5000002C06D16648006850F4002064490860F3
:101B60000EE0012C06D16248006850F480106049F4
:101B7000086005E05E48006850F400105C490860A9
:101B80005F48006850F080605D49086000F0BEF872
:101B900004005B480068000106D400F0B7F8001BA1
:101BA0000328F6D3032001E02800C0B2F2BD0000F4
:101BB00008A90208F8B506000C0000254B4800688B
:101BC00010F00300032801D1012087E04C48006891
:101BD00030F080504A49086000F098F80700484803
:101BE0000068800006D500F091F8C01B0328F6D3EA
:101BF000032073E03D48006830F07C70316850EAA3
:101C000001503A4908607068401EC005C00DB168B7
:101C1000491E490211F47E410843F168491E090436
:101C200011F4FE0108433169491E090611F0FE4115
:101C30000843314908602E48016831F440617069F9
:101C400001432B4801602A48016831F40071B069F2
:101C50000143274801602648006830F48070244919
:101C60000860244800686FF3CF00F16950EAC100B2
:101C7000204908601E48006850F480701C490860C4
:101C8000002C06D11A48006850F4800018490860FA
:101C90000EE0012C06D11648006850F400001449EB
:101CA000086005E01248006850F080701049086034
:101CB0001348006850F080501149086000F026F881
:101CC00004000F480068800006D400F01FF8001BD5
:101CD0000328F6D3032001E02800C0B2F2BD0000C3
:101CE000204402583C4402583844025828440258C0
:101CF0002C44025844440258404402583444025888
:101D0000004402580090D003304402580148006853
:101D1000704700BFC0C4022470B504000D00002C41
:101D200001D1012079E1DFF8C405006810F00F004F
:101D3000A84211D2DFF8B405006800090001284369
:101D4000DFF8A8150860DFF8A405006810F00F00A0
:101D5000A84201D0012060E12078400711D5DFF8CA
:101D6000A805006810F070002169884209D2DFF8E8
:101D70009805016831F0700120690143DFF888059A
:101D800001602078000711D5DFF88005006810F0A9
:101D900070006169884209D2DFF87005016831F08E
:101DA000700160690143DFF8640501602078C006B6
:101DB00011D5DFF85805006810F4E060A169884289
:101DC00009D2DFF84805016831F4E061A0690143F8
:101DD000DFF8380501602078800611D5DFF830057E
:101DE000006810F07000E169884209D2DFF8200530
:101DF000016831F07001E0690143DFF8140501600A
:101E00002078800711D5DFF80005006810F00F007A
:101E1000E168884209D2DFF8F00401680909090184
:101E2000E0680143DFF8E00401602078C0074DD589
:101E3000DFF8D404016831F47061A0680143DFF871
:101E4000C80401606068022806D1DFF8A4040068B5
:101E500080031CD40120E0E06068032806D1DFF88D
:101E600090040068800112D40120D6E06068012847
:101E700006D1DFF87C040068C00508D40120CCE05E
:101E8000DFF86C040068400701D40120C5E0DFF8EA
:101E900064040168C908C90060680143DFF854049C
:101EA0000160FFF733FF0600DFF84804006810F018
:101EB00038006168B0EBC10F08D0FFF727FF801B27
:101EC00041F289318842EFD30320A6E020788007D1
:101ED00011D5E068DFF83014096811F00F0188426D
:101EE00009D2DFF82404016809090901E068014307
:101EF000DFF814040160DFF8F403006810F00F004D
:101F0000854211D2DFF8E40300680009000128438C
:101F1000DFF8D8130860DFF8D403006810F00F0072
:101F2000A84201D0012078E02078400711D520692F
:101F3000DFF8D413096811F07001884209D2DFF884
:101F4000C803016831F0700120690143DFF8B8036C
:101F500001602078000711D56069DFF8B0130968C7
:101F600011F07001884209D2DFF8A003016831F056
:101F7000700160690143DFF8940301602078C006B6
:101F800011D5A069DFF88413096811F4E061884273
:101F900009D2DFF87803016831F4E061A0690143F8
:101FA000DFF8680301602078800611D5E069DFF86A
:101FB0006013096811F07001884209D2DFF85003FC
:101FC000016831F07001E0690143DFF8440301600A
:101FD00000F024F8DFF84C13DFF82C231268C2F36A
:101FE0000322895C11F01F01C840DFF83813DFF8C5
:101FF0001823126812F00F02895C11F01F01020011
:10200000CA40DFF8FC120A60DFF8F0120860DFF85F
:10201000F402006800F08CF9C0B270BDDFF8D402A1
:10202000006810F03800002806D0082815D01028C5
:1020300016D0182817D0ECE0DFF8B402006880064C
:1020400008D5DFF8B402DFF8A8120968C1F3C101AE
:10205000C84001E0DFF8A002DCE0DFF8CC02D9E004
:10206000DFF8C802D6E0DFF8AC02026812F0030223
:10207000DFF8A0020068C0F30510DFF89C120B68BF
:1020800013F00103DFF898120968C1F3CC014B4348
:1020900000EE103AB8EE400A002800F0B880002A9E
:1020A00003D0022A6AD04BD385E0DFF844120968D6
:1020B000890627D5DFF84012DFF834221268C2F310
:1020C000C102D14000EE901AF8EE600A01EE100A4B
:1020D000B8EE411AC0EE810ADFF840020068C00580
:1020E000C00D01EE100AB8EE411ADFED661A80EE5F
:1020F000210A31EE000AB7EE001A30EE010A60EE56
:10210000800A1CE000EE900AF8EE600A9FED5E1A6D
:10211000C1EE200ADFF804020068C005C00D01EE20
:10212000100AB8EE411ADFED571A80EE210A31EE9F
:10213000000AB7EE001A30EE010A60EE800A56E09F
:1021400000EE900AF8EE600A9FED501AC1EE200AE8
:10215000DFF8C8010068C005C00D01EE100AB8EE36
:10216000411ADFED481A80EE210A31EE000AB7EE7F
:10217000001A30EE010A60EE800A38E000EE900AA4
:10218000F8EE600A9FED421AC1EE200A634800682B
:10219000C005C00D01EE100AB8EE411ADFED391A84
:1021A00080EE210A31EE000AB7EE001A30EE010A85
:1021B00060EE800A1BE000EE900AF8EE600A9FEDE8
:1021C000331AC1EE200A55480068C005C00D01EE63
:1021D000100AB8EE411ADFED2B1A80EE210A31EE1B
:1021E000000AB7EE001A30EE010A60EE800A4B4892
:1021F0000068C0F34620401C00EE100AB8EE400A0A
:1022000080EE800ABCEEC00A10EE100A00E000204A
:1022100000E04548704780B5FFF700FF41493A4A62
:102220001268C2F30322895C11F01F01C8403D49C6
:10223000354A126812F00F02895C11F01F0102008A
:10224000CA402F490A602D4908602D48006802BD28
:1022500080B5FFF7E0FF33492C4A1268C2F302123F
:10226000895C11F01F01C84002BD80B5FFF7D3FFA4
:102270002C49264A1268C2F30222895C11F01F0120
:10228000C84002BD000000460024744C0024744A7B
:1022900020BCBE4B3F220260164A126812F00702B1
:1022A0004260194A126812F470628260164A12681B
:1022B00012F00F02C260144A126812F0700202613A
:1022C000124A126812F070024261104A126812F447
:1022D000E06282610E4A126812F07002C261034825
:1022E000006810F00F0008607047000000200052E6
:1022F00000440258104402580090D003800100248A
:10230000840100247C010024184402581C44025813
:1023100020440258284402582C44025830440258A1
:102320003444025808A9020800093D0040787D01A4
:1023300010B58AB00400102C1FD2002221001D20ED
:1023400000F0A3F81D2000F0B0F81E4804601E48FD
:10235000006850F002001C4908601B48006810F03B
:1023600002000090009801A902A8FFF793FF0798C8
:10237000002804D1FFF76CFF04E001201FE0FFF705
:1023800067FF40001149B0FBF1F0401E1049114AAF
:10239000116040F2E7310F4AD1600E4948600020D9
:1023A0000C49086100200B4988600A4800F08CF84D
:1023B000002803D1074800F0C4F800E001200AB06B
:1023C00010BD00007C010024E844025840420F0088
:1023D00000040040FCC0022410F00700DFF8D41015
:1023E0000A684FF6FF010A4052EA0022DFF8C800EF
:1023F00002433048026070472E480068C0F3022054
:1024000070470000010009B2002908D4012210F031
:102410001F018A40294900B2400941F82020704735
:10242000020012B2002A04D40901254A00B2115454
:1024300007E00901234A00B210F00F00104400F831
:10244000041C704710B410F00700D0F10703052BEF
:1024500001D3042301E0D0F10703041D072C01D2AE
:10246000002000E0C01E012414FA03F35B1E194093
:102470008140012313FA00F0401E1040084310BCB5
:10248000704780B5FFF7A8FF01BD70B504000D00CF
:102490001600FFF7B1FF32002900FFF7D3FF01005C
:1024A000200000B2FFF7BCFF70BD80B500B2FFF79F
:1024B000A9FF01BD0CED00E00000FA0500E100E01D
:1024C00000E400E018ED00E010B50400002C01D19C
:1024D000012035E094F83D00002805D1002084F863
:1024E0003C00200000F090FC022084F83D00211DFB
:1024F000206800F0A0FA012084F84800012084F848
:102500003E00012084F83F00012084F840000120B3
:1025100084F84100012084F84200012084F843003F
:10252000012084F84400012084F84500012084F84B
:102530004600012084F84700012084F83D00002077
:1025400010BD90F83D10012901D0012042E0022188
:1025500080F83D100168C96851F001010268D1603E
:102560000168DFF8742091421CD00168B1F1804FFE
:1025700018D00168DFF86420914213D00168DFF8B9
:10258000602091420ED00168DFF85820914209D0B6
:102590000168DFF85420914204D00168DFF84C2034
:1025A000914210D101688A68DFF844100A40062A77
:1025B0000FD0B2F5803F0CD00168096851F00101DD
:1025C0000068016005E00168096851F001010068D8
:1025D000016000207047000000000140000400403E
:1025E00000080040000C00400004014000180040BA
:1025F0000700010010B50400002C01D1012035E0D6
:1026000094F83D00002805D1002084F83C0020000B
:1026100000F01BFD022084F83D00211D206800F021
:102620000AFA012084F84800012084F83E000120C5
:1026300084F83F00012084F84000012084F8410024
:10264000012084F84200012084F84300012084F82E
:102650004400012084F84500012084F84600012050
:1026600084F84700012084F83D00002010BD38B5F3
:1026700004000D00002C01D101205EE094F83D0023
:10268000002805D1002084F83C00200000F08DFCDB
:10269000022084F83D0020688168DFF8A000014036
:1026A00020688160211D206800F0C5F920688168DC
:1026B000206882692068036A28680143DFF8800087
:1026C0000240A8680243A86952EA0022DFF87400B9
:1026D0000240DFF874000240E8680243E86952EA09
:1026E0000022286952EA0012286A52EA003233F0C6
:1026F000220333F0880368680343686953EA0013D0
:10270000206881602068826120680362012084F86B
:102710004800012084F83E00C0B2012084F83F0048
:10272000C0B2012084F84400C0B2012084F8450002
:10273000C0B2012084F83D00002032BDF8BFFEFF8A
:10274000FCFCFFFFF3F3FFFF0F0FFFFF10B50400CA
:102750002068006980071AD52068C068800716D5F0
:102760007FF00200216808610120207720688069DD
:1027700010F0030F03D0200000F0B6FC05E02000AD
:1027800000F0B3FC200000F0B1FC002020772068AE
:10279000006940071AD52068C068400716D57FF049
:1027A000040021680861022020772068806910F405
:1027B000407F03D0200000F097FC05E0200000F0EF
:1027C00094FC200000F092FC002020772068006933
:1027D00000071AD52068C068000716D57FF00800EA
:1027E00021680861042020772068C06910F0030F79
:1027F00003D0200000F078FC05E0200000F075FC1C
:10280000200000F073FC0020207720680069C006DB
:102810001AD52068C068C00616D57FF01000216860
:102820000861082020772068C06910F4407F03D039
:10283000200000F059FC05E0200000F056FC2000CC
:1028400000F054FC0020207720680069C0070AD5FA
:102850002068C068C00706D57FF0010021680861C4
:10286000200000F06AFD2068006900060AD5206893
:10287000C068000606D57FF080002168086120004E
:1028800000F07CFD20680069C0050AD52068C0689A
:10289000000606D57FF4807021680861200000F0F2
:1028A0006EFD2068006940060AD52068C0684006B1
:1028B00006D57FF0400021680861200000F060FD2F
:1028C0002068006980060AD52068C068800606D5A1
:1028D0007FF0200021680861200000F052FD10BD4B
:1028E00038B504000D0094F83C00012801D1022005
:1028F000A0E0012084F83C00002A0AD0042A1FD05E
:10290000082A35D00C2A4AD0102A60D0142A75D053
:102910008CE02900206800F0F3F82068806950F00E
:102920000800216888612068806930F0040021680F
:10293000886120688169286901432068816175E0A8
:102940002900206800F02CF92068806950F40060AC
:10295000216888612068806930F48060216888611E
:1029600020688069296950EA0120216888615DE05A
:102970002900206800F05EF92068C06950F0080066
:102980002168C8612068C06930F004002168C8610E
:102990002068C169286901432068C16146E02900B7
:1029A000206800F08FF92068C06950F40060216849
:1029B000C8612068C06930F480602168C8612068FF
:1029C000C069296950EA01202168C8612EE0290008
:1029D000206800F0ABF92068406D50F008002168D5
:1029E00048652068406D30F0040021684865206823
:1029F000416D286901432068416517E0290020687E
:102A000000F0C0F92068406D50F40060216848650E
:102A10002068406D30F48060216848652068406D12
:102A2000296950EA012021684865FFE7002084F801
:102A30003C00002032BD0368DFF8A423904212D08E
:102A4000B0F1804F0FD0DFF89C2390420BD0DFF81D
:102A50009823904207D0DFF89423904203D0DFF808
:102A60009023904203D133F070034A681343DFF898
:102A7000702390421ED0B0F1804F1BD0DFF864234A
:102A8000904217D0DFF86023904213D0DFF85C2328
:102A900090420FD0DFF8582390420BD0DFF8542338
:102AA000904207D0DFF85023904203D0DFF84C2348
:102AB000904203D133F44073CA68134333F0800368
:102AC0004A69134303608A68C2620A688262DFF857
:102AD000102390420FD0DFF8182390420BD0DFF87C
:102AE0001423904207D0DFF81023904203D0DFF880
:102AF0000C23904201D109690163012141617047B2
:102B000030B4026A520852000262056A436884695E
:102B1000DFF8EC221440A408A4000A68144335F03E
:102B200002058A681543DFF8B82290420FD0DFF81B
:102B3000C02290420BD0DFF8BC22904207D0DFF8D1
:102B4000B822904203D0DFF8B422904205D135F08C
:102B50000805CA68154335F00405DFF88422904261
:102B60000FD0DFF88C2290420BD0DFF88822904201
:102B700007D0DFF88422904203D0DFF88022904211
:102B800007D133F4807333F400734A6913438A69BD
:102B900013434360846149684163056230BC7047F8
:102BA00030B4026A32F010020262056A4368846936
:102BB000DFF85022144034F440740A6854EA0224C6
:102BC00035F020058A6855EA0215DFF81422904294
:102BD00003D0DFF81C22904206D135F08005CA6888
:102BE00055EA021535F04005DFF8F42190420FD088
:102BF000DFF8FC2190420BD0DFF8F821904207D09B
:102C0000DFF8F421904203D0DFF8F021904209D19F
:102C100033F4806333F400634A6953EA82038A69B8
:102C200053EA82034360846149688163056230BC72
:102C30007047000030B4026A32F480720262056AA2
:102C40004368C46934F07004A408A4000A681443FB
:102C500035F400758A6855EA0225DFF88421904230
:102C600003D0DFF88C21904206D135F40065CA68A4
:102C700055EA022535F48065DFF8642190420FD0D3
:102C8000DFF86C2190420BD0DFF86821904207D02A
:102C9000DFF86421904203D0DFF86021904209D12F
:102CA00033F4805333F400534A6953EA02138A69B8
:102CB00053EA02134360C4614968C163056230BCD2
:102CC0007047000030B4026A32F480520262036A34
:102CD0004468C26932F4E04232F440720D6852EA4C
:102CE000052233F400538D6853EA0533DFF8F050C2
:102CF000A8420FD0DFF8F850A8420BD0DFF8F4500C
:102D0000A84207D0DFF8F050A84203D0DFF8EC501B
:102D1000A84204D134F480444D6954EA85144460D7
:102D2000C26149680164036230BC704730B4026A12
:102D300032F480320262046A4568436D33F07003F6
:102D40000A68134334F400348A6854EA0244244A7B
:102D500090420BD0264A904208D0264A904205D095
:102D6000254A904202D0254A904204D135F480355C
:102D70004A6955EA022545604365496881650462F0
:102D800030BC704730B4026A32F480120262036AC7
:102D90004468426D32F4E0420D6852EA052233F491
:102DA00000138D6853EA05530D4DA8420BD0104D0A
:102DB000A84208D00F4DA84205D00F4DA84202D01E
:102DC0000E4DA84204D134F400344D6954EA8524F0
:102DD000446042654968C165036230BC70470000C9
:102DE000000001400004004000080040000C0040CA
:102DF00000040140004001400044014000480140FF
:102E00008FFFFEFFFF8FFFFE7047F0B40246106891
:102E100095681318506803EB5004C0071BD54D4448
:102E200019E013F8017B05F8017B491EF9D190B137
:102E300013F8011BC6F38106032E08BF13F8016BBC
:102E400001EB062149422944801C11F8016B05F869
:102E5000016B401EF9D1A3420ED013F8016B16F09E
:102E6000030104BF13F8011BC91C30090F28DCD172
:102E700013F8010B0F30D8E7F0BC02F10C007047DB
:102E800080B58CB02422002103A800F07BFA0C222C
:102E90000021684600F076FA8A488B4908600020D5
:102EA000894948600020884988604FF6FF7086494C
:102EB000C8600020844908610020834948610020DF
:102EC0008149886101200390002004900120059031
:102ED000002006900A200790002008900120099009
:102EE00000200A900A200B9003A97748FFF7BFFB48
:102EF000002801D000F040FA00200090002001904E
:102F0000002002906946704800F046FA002801D07F
:102F100000F032FA0DB000BD80B58AB00C2200215D
:102F2000684600F02FFA1C22002103A800F02AFABC
:102F30005FF08040654908600020644948600020D7
:102F4000624988605FF0FF306049C86000205F49D7
:102F5000086100205D4988615C48FFF74BFB002851
:102F600001D000F009FA002000900020029069468C
:102F7000564800F011FA002801D000F0FDF9602059
:102F80000390002004900020059000200790082264
:102F900003A94E48FFF7A4FC002801D000F0ECF98B
:102FA0004A4800F065F80BB000BD10B586B00400CB
:102FB00014220021684600F0E5F920684149884262
:102FC00041D14348006850F0010041490860404841
:102FD000006810F00100059005983E48006850F028
:102FE00001003C4908603B48006810F00100059072
:102FF00005983848006850F0100036490860354898
:10300000006810F01000059005984FF48070009053
:1030100002200190002002900020039001200490E3
:1030200069462D4800F012FA4FF40060009002202B
:103030000190002002900020039001200490694636
:10304000264800F003FA06B010BD81B00068B0F168
:10305000804F0BD12248006850F0010020490860E1
:103060001F48006810F001000090009801B0704700
:1030700010B586B004001422002101A800F082F9E6
:103080002068B0F1804F1AD11248006850F0020059
:10309000104908600F48006810F002000090009886
:1030A0004FF48060019002200290002003900020E5
:1030B00004900120059001A90A4800F0C7F906B064
:1030C00010BD00000000014048C1022494C1022448
:1030D000F0440258E0440258000002580010025820
:1030E000E84402580004025870477047704703686C
:1030F0001AB95A1E026008467047197811B94FF084
:10310000FF307047591C01601878704780B58F48B0
:103110000068800314D4BFF34F8FBFF36F8F00207C
:103120008B490860BFF34F8FBFF36F8F87480068EC
:1031300050F4003085490860BFF34F8FBFF36F8FA5
:1031400000F0A0FA00F03CF800F0B7F800F0F6FA52
:1031500000F0FCFB00F07AFC00F0F1FC00F057FD01
:1031600000F098FE00F04EFF00F0D0FF01F0EEF905
:1031700001F033F801F093F8FFF782FEFFF7CCFE81
:1031800001F06EFA01F01CFBFEE700B587B001F01C
:1031900041FBBC20069001200590002004900320F4
:1031A0000390032002904FF48060019069480090E2
:1031B0000023694A69496A4801F068FB07B000BD0D
:1031C00010B59CB04C21002209AC200001F00EFC8F
:1031D0002021002201AC200001F008FC022001F0B7
:1031E00045FC002000905F48006850F440405D4975
:1031F00008605C48006810F4404000905A4800683D
:1032000050F00100584908605748006810F001006C
:1032100000900098534800688004FBD501F05EFCE4
:1032200000F05EFA5148006830F018004F4908601D
:103230004F4800688008800050F002004C49086048
:10324000052009905FF480300A9001200B90022045
:10325000129002201390012014903C20159002201F
:10326000169008201790022018900C20199000202A
:103270001A9000201B9009A801F03AFC002801D008
:1032800000F07AF83F200190032002900020039084
:103290000820049040200590402006904FF4806064
:1032A000079040200890042101A8FEF735FD002872
:1032B00001D000F061F81CB010BD18B5AFB0BC2152
:1032C00000226C46200001F091FB5FF44920009041
:1032D000012001900C200290032003900220049012
:1032E00002200590C0200690002007900020089042
:1032F000012009900C200A9002200B9004200C90D1
:1033000002200D904FF440600E9000200F9000209E
:1033100010904FF4005017905FF000501B905FF436
:1033200000102190002028906846FCF7B5FF002887
:1033300001D000F021F830B010BD80B500680D4913
:10334000884201D101F06AFF01BD000014ED00E0E8
:1033500050EF00E09894022411900208FCAA0208A1
:1033600080B80224184802582C04005870440258AF
:10337000284402580004004072B6FEE770477047C8
:103380007047704710B5044610460A46014620466D
:1033900001F02CFB204610BD30B490F83C20012AEF
:1033A00001D1022044E0012280F83C20022280F872
:1033B0003D20026854680268936802681D4DAA4265
:1033C00003D002681F4DAA4203D134F470044A6846
:1033D000144334F070040A681443026854600268AD
:1033E000144CA24217D00268B2F1804F13D0026889
:1033F000114CA2420FD00268104CA2420BD00268BE
:103400000F4CA24207D002680E4CA24203D00268C1
:103410000D4CA24205D133F0800389680B4301684B
:103420008B60012180F83D10002180F83C100020C5
:1034300030BC70470000014000040040000800401C
:10344000000C00400004014000180040F8B40200E5
:103450000025DFF8F84138E00A2704E0DFF8F03112
:103460009A42F9D1092715F00303DBB29B009F4074
:103470003E43DFF8E0312F00BF0843F827602368A0
:1034800083434E68F60300D5034323606368834398
:103490004E68B60300D5034363605FF0B0431B681A
:1034A00083434E68F60200D503435FF0B0463360B5
:1034B000DFF8A4311B6883434E68B60201D5184378
:1034C0000300DFF8940103606D1C0868E8400028E1
:1034D00000F0AF8008680123AB4018400028F3D00B
:1034E0004B68012B08D04B68022B05D04B68112B81
:1034F00002D04B68122B17D1966803272B00DBB242
:103500005B009F40BE43CF682B00DBB25B009F4057
:103510003E43966053680126AE40B3434E68C6F3FF
:103520000016AE4033435360D66803272B00DBB24E
:103530005B009F40BE438F682B00DBB25B009F4067
:103540003E43D6604B68022B02D04B68122B17D13A
:103550002B00DB0802EB83031E6A0F2715F007031D
:10356000DBB29B009F40BE430F6915F00703DBB23F
:103570009B009F403E432B00DB0802EB83031E624F
:10358000166803272B00DBB25B009F40BE430F7918
:1035900017F003072B00DBB25B009F403E43166031
:1035A0004B68DB0090D52D4B1B6853F002032B4E6C
:1035B00033602A4B1B6813F002030093009B254BDA
:1035C0002E00B60853F826600F2715F00303DBB270
:1035D0009B009F40BE43224B9A4201D1002742E705
:1035E000204B9A4201D101273DE71F4B9A4201D15E
:1035F000022738E71D4B9A4201D1032733E71C4BC2
:103600009A4201D104272EE71A4B9A4201D105278D
:1036100029E7194B9A4201D1062724E7174B9A4212
:1036200001D107271FE7164B9A427FF417AF0827EF
:1036300019E7F1BC7047D2B2002A02D089B2816189
:1036400002E089B2090481617047000080000058DF
:10365000002402580804005804000058F44402589A
:10366000000002580004025800080258000C0258DA
:10367000001002580014025800180258001C02588A
:103680000020025880B50320FEF7FBFEFEF7C6FCC3
:10369000DFF88410DFF884201268C2F30322895C0B
:1036A00011F01F01C840DFF87010DFF870201268B9
:1036B00012F00F02895C11F01F010200CA40DFF80E
:1036C00060100A60DFF85C1008600F20FEF730FE23
:1036D000002801D0012002E001F0ACFD002002BD75
:1036E000DFF844000068000C7047DFF84000006815
:1036F0007047DFF83C0000687047DFF8380000686A
:103700007047DFF83420126832EA00000843DFF81F
:10371000281008607047000008A9020818440258E1
:1037200084010024800100240010005C00E8F11FE7
:1037300004E8F11F08E8F11F0404005880B586B0C2
:10374000142200216846FFF71DFE7A48006850F0F9
:103750000400784908607748006810F0040005907C
:1037600005987448006850F010007249086071486C
:10377000006810F01000059005986E48006850F041
:1037800002006C4908606B48006810F00200059068
:1037900005986848006850F001006649086065486F
:1037A000006810F00100059005986248006850F02C
:1037B0000800604908605F48006810F00800059044
:1037C00005985C48006850F080005A4908605948E4
:1037D000006810F080000590059800224FF4035116
:1037E0005548FFF728FF00224FF400415348FFF7E8
:1037F00022FF002242F208315148FFF71CFF00224D
:1038000042F660714F48FFF716FF00224FF4304137
:103810004D48FFF710FF4FF4035000900120019036
:10382000002002900020039069464348FFF70EFEF7
:103830004FF40040009001200190002002900020F1
:10384000039069463D48FFF701FE42F208300090C0
:103850000120019000200290002003906946384822
:10386000FFF7F4FD42F66070009001200190002007
:1038700002900020039069463248FFF7E7FD4CF2C2
:1038800020400090032001900020029069462C48BF
:10389000FFF7DCFD44F2910000900320019000202E
:1038A000029069462748FFF7D1FD40F2034000909F
:1038B000032001900020029069462048FFF7C6FDD2
:1038C00004200090032001900020029069461E48C9
:1038D000FFF7BCFD4FF43040009001200190002024
:1038E00002900020039069461748FFF7AFFD4FF4A0
:1038F00084500090002001900020029069461048FA
:10390000FFF7A4FD4FF4006000900020019000201C
:10391000029069460C48FFF799FD4FF480500090E3
:10392000002001900020029069460648FFF78EFDB6
:1039300007B000BDE04402580008025800000258D9
:1039400000100258000C02580004025880B586B0DE
:103950001422002101A8FFF715FD0422002168466A
:10396000FFF710FD364837490860002035494860A8
:103970007F2034498860FF203249C86000203149E7
:10398000086100202F49886100202E49C86100206D
:103990002C4948612B4801F05FFC002801D0FFF75B
:1039A000EBFC00208DF8040000208DF805000020BD
:1039B0008DF806000020049000200590012201A946
:1039C000204801F0A0FC002801D0FFF7D5FC012021
:1039D0008DF8000001208DF8010001208DF8020013
:1039E00000208DF8030001226946164801F0FBFC17
:1039F000002801D0FFF7C0FC07B000BD18B5AFB07C
:103A00000400BC2200216846FFF7BCFC20680C497A
:103A1000884212D15FF4800000904FF480702C90A7
:103A20006846FCF739FC002801D0FFF7A5FC0648E2
:103A3000006850F400400449086030B010BD000038
:103A40000040005824C302247044025880B58AB054
:103A50000C22002107A8FFF795FC1C2200216846D4
:103A6000FFF790FCDFF8F003DFF8F01308600020A8
:103A7000DFF8E81348600020DFF8E01388600020DA
:103A8000DFF8D813C8600420DFF8D01308610020E5
:103A9000DFF8C81308750020DFF8C013487501204F
:103AA000DFF8B81388610020DFF8B0130877002032
:103AB000DFF8A81348620020DFF8A0138862002016
:103AC000DFF89813C8620020DFF890130863002025
:103AD000DFF8881348630020DFF8801381F838008E
:103AE000DFF8780301F0F8FD002801D0FFF744FC6F
:103AF0000020079007A9DFF8640302F046FA0028C7
:103B000001D0FFF739FCDFF8580300900620019040
:103B10000020029040F2FF700390042004900020E7
:103B2000059000208DF819006946DFF8300301F098
:103B30001DFF002801D0FFF71FFC0BB000BD00B532
:103B400087B01C2200216846FFF71CFCDFF8140335
:103B5000DFF8141308600020DFF80C134860002021
:103B6000DFF8041388600020DFF8FC12C86004202E
:103B7000DFF8F41208610020DFF8EC12087500206D
:103B8000DFF8E41248750120DFF8DC1288610020BC
:103B9000DFF8D41208770020DFF8CC12486200204A
:103BA000DFF8C41288620020DFF8BC12C86200206F
:103BB000DFF8B41208630020DFF8AC12486300207D
:103BC000DFF8A41281F83800DFF89C0201F084FDD0
:103BD000002801D0FFF7D0FBDFF89002009006200C
:103BE00001900020029040F2FF70039004200490A6
:103BF0000020059000208DF8190069469A4801F0D0
:103C0000B5FE002801D0FFF7B7FB07B000BD00B537
:103C100087B01C2200216846FFF7B4FB9448954901
:103C20000860002093494860002092498860002085
:103C30009049C86004208F49086100208D490875AB
:103C400000208C49487501208A49886100208949F3
:103C50000877002087494862002086498862002052
:103C60008449C86200208349086300208149486371
:103C70000020804981F838007E4801F02DFD0028A1
:103C800001D0FFF779FB7C480090062001900020CE
:103C9000029040F2FF7003900420049000200590F1
:103CA00000208DF819006946724801F05FFE002877
:103CB00001D0FFF761FB07B000BD10B586B004006E
:103CC000142200216846FFF75DFB206862498842A4
:103CD00057D16A480068401C684908606748006816
:103CE00001280BD16648006850F020006449086044
:103CF0006348006810F0200005900598614800684E
:103D000050F004005F4908605E48006810F004004D
:103D1000059005985B48006850F00100594908601B
:103D20005848006810F00100059005985548006853
:103D300050F00200534908605248006810F0020039
:103D400005900598302000900320019000200290FB
:103D500069464D48FFF77AFBC02000900320019090
:103D60000020029069464948FFF770FB032000904D
:103D7000032001900020029069464548FFF766FB4A
:103D800067E020683749884241D13C480068401CC0
:103D90003A4908603948006801280BD13848006862
:103DA00050F02000364908603548006810F02000C7
:103DB000059005983348006850F0040031490860C8
:103DC0003048006810F00400059005982D48006800
:103DD00050F001002B4908602A48006810F00100EB
:103DE0000590059803200090032001900020029088
:103DF00069462548FFF72AFB0C200090032001901C
:103E00000020029069462148FFF720FB21E020684E
:103E1000174988421DD11B48006850F0807019492D
:103E200008601848006810F08070059005981548E3
:103E3000006850F00400134908601248006810F050
:103E40000400059005985FF080615FF08060FFF7E7
:103E500058FC06B010BD0000002002402CBF022418
:103E60000800900C0021024090BF02240004002AA8
:103E700000600258F4BF0224000052C714C4022498
:103E8000D8440258E0440258000802580000025882
:103E90000004025880B5554855490860002054492F
:103EA000886000205249C8600020514908740020F1
:103EB0004F49487400204E49887401204C4948619C
:103EC00001204B49886102204949C86102204849C4
:103ED0000862012046494862012045498862012064
:103EE0004349C862012042490863002040494863B1
:103EF00000203F49886300203D49C86300203C49B9
:103F0000086404203A494864002039498864042040
:103F10003749C8640020364908650420344948659B
:103F200000203349886500203149C86500203049A8
:103F3000086600202E49486604202D4988662C48D2
:103F400002F0DCF8002801D0FFF716FA01BD10B529
:103F500086B00400142200216846FFF713FA206897
:103F60002249884240D12348006850F4807021499A
:103F700008602048006810F48070059005981E487D
:103F8000006850F002001C4908601B48006810F0EF
:103F90000200059005981848006850F0080016497E
:103FA00008601548006810F00800059005984FF467
:103FB0008070009002200190002002900020039069
:103FC0000920049069460D48FFF740FA022000904E
:103FD000022001900020029000200390092004900C
:103FE00069460748FFF732FA06B010BD00A000404E
:103FF000F8B90224EC440258E04402580004025884
:10400000000C025880B53B483B4908603B483A49A0
:10401000486000203849886001203749C860002086
:1040200035490861002034494861002032498861DF
:1040300000203149C86100202F4908622E4802F053
:10404000D3FA002801D0FFF797F900212A4802F09F
:1040500031FB002801D0FFF78FF90021264802F03C
:104060005AFB002801D0FFF787F901BD18B5B5B09C
:1040700004001422002101A8FFF784F9BC220021CA
:1040800006A8FFF77FF920681A49884230D1082036
:1040900006900020269006A8FCF7FEF8002801D024
:1040A000FFF76AF91648006850F0020014490860EA
:1040B0001348006810F0020000900098C0200190A2
:1040C000122002900120039000200490042005900B
:1040D00001A90C48FFF7BAF90B48006850F400102A
:1040E000094908600848006810F400100090009822
:1040F00036B010BD00540040B0C00224DB3FB00019
:10410000E044025800040258E844025880B5DFF841
:104110000404DFF8041408605FF48000DFF8F8138B
:1041200048600020DFF8F01388600720DFF8E8130C
:10413000C8600020DFF8E01308610020DFF8D81322
:1041400048615FF00050DFF8D01388615FF0804075
:10415000DFF8C413C8610020DFF8BC130862002038
:10416000DFF8B41348620020DFF8AC138862002047
:10417000DFF8A413C8625FF08040DFF89C13486347
:104180000020DFF8941388630020DFF88C13C863E5
:104190000020DFF8841308640020DFF87C134864F3
:1041A0000020DFF8741388640020DFF86C13C86403
:1041B0000020DFF8641308650020DFF85C13486511
:1041C0000020DFF854138865DFF84C0302F0D6FABC
:1041D000002801D0FFF7D0F801BD80B5DFF83C031F
:1041E000DFF83C1308605FF48000DFF834134860A8
:1041F0000020DFF82C1388600720DFF82413C86044
:104200000020DFF81C1308610020DFF81413486158
:104210005FF00050DFF8081388615FF08040DFF83E
:104220000013C8610020DFF8F81208620020DFF8F0
:10423000F01248620020DFF8E81288620020DFF800
:10424000E012C8625FF08040DFF8D41248630020BB
:10425000DFF8CC1288630020DFF8C412C8630020A6
:10426000DFF8BC1208640020DFF8B41248640020B4
:10427000DFF8AC1288640020A949C8640020A8496E
:1042800008650020A64948650020A5498865A4481E
:1042900002F074FA002801D0FFF76EF801BD80B576
:1042A000A048A14908605FF480009F4948605FF41E
:1042B00000309D49886007209B49C86000209A49CA
:1042C00008610020984948615FF000509649886174
:1042D0005FF000509449C8610020934908620020B3
:1042E0009149486200209049886200208E49C86246
:1042F0005FF080408C49486300208B498863002030
:104300008949C863002088490864002086494864B8
:1043100000208549886400208349C86400208249C0
:10432000086500208049486500207F4988657E48EF
:1043300002F024FA002801D0FFF71EF801BD18B5DD
:10434000B5B00400142200216846FFF71BF8BC2218
:10435000002106A8FFF716F820686E49884240D170
:104360007248006850F48050704908606F480068D7
:1043700010F48050059005986D48006850F00200D8
:104380006B4908606A48006810F0020005900598C3
:104390006748006850F0010065490860644800689B
:1043A00010F0010005900598302000900220019047
:1043B00000200290002003900520049069465D488B
:1043C000FFF744F830200090022001900020029076
:1043D000002003900520049069465748FFF736F8FF
:1043E00095E020684D4988425BD15448006850F4FC
:1043F0008040524908605148006810F480400590A0
:1044000005984B48006850F0020049490860484848
:10441000006810F00200059005984548006850F0CB
:104420000800434908604248006810F00800059001
:1044300005983F48006850F004003D4908603C483A
:10444000006810F00400059005984FF48440009037
:10445000022001900020029000200390052004908B
:1044600069463448FEF7F2FF0820009002200190D0
:1044700000200290002003900520049069463048F7
:10448000FEF7E4FF08200090022001900020029037
:10449000002003900520049069462A48FEF7D6FFC5
:1044A00035E020681F49884231D14FF40050069012
:1044B00000201E9006A8FBF7EFFE002801D0FEF7B3
:1044C0005BFF1A48006850F400501849086017480C
:1044D000006810F40050059005981548006850F0E9
:1044E0001000134908601248006810F01000059091
:1044F0000598542000900220019000200290002096
:1045000003900520049069460F48FEF79FFF36B0E0
:1045100010BD00000030014028BB022400380040DC
:10452000B0BB02240034014038BC0224F0440258DD
:10453000E04402580004025800000258E8440258BF
:10454000000C0258000802580010025880B53E487E
:104550003E49016000214160002181604FF48041AB
:10456000C160002101610121416102F04FFA002880
:1045700001D0FEF701FF01BD18B5B5B0040014224B
:1045800000216846FEF7FEFEBC22002106A8FEF7C9
:10459000F9FE20682D49884254D15FF4803006909E
:1045A0000020199006A8FBF777FE002801D0FEF73F
:1045B000E3FE2748006850F480302549086024480D
:1045C000006810F48030059005982248006850F08B
:1045D0000800204908601F48006810F00800059096
:1045E00005981C48006850F004001A4908601948F2
:1045F000006810F004000590059804200090022047
:10460000019000200290032003900C200490694642
:104610001148FEF71BFF4FF4F85000900220019064
:1046200000200290032003900C20049069460B4860
:10463000FEF70CFF002206213120FDF726FF312076
:10464000FDF733FF36B010BD44BE022400700052A7
:10465000D4440258E0440258000C025800080258A2
:1046600080B55148514908605FF4E1304F494860D6
:1046700000204E49886000204C49C86000204B490A
:1046800008610C20494948610020484988610020A0
:104690004649C861002045490862002043494862F4
:1046A0000020424988620023002200213F4803F095
:1046B00063F9002801D0FEF75FFE00213B4803F0BC
:1046C000C7F9002801D0FEF757FE0021374803F054
:1046D000E9F9002801D0FEF74FFE344803F096F9BF
:1046E000002801D0FEF748FE01BD18B5B5B00400A2
:1046F000142200216846FEF745FEBC22002106A8D0
:10470000FEF740FE2068284988424BD102200690DF
:104710000020239006A8FBF7BFFD002801D0FEF77C
:104720002BFE2348006850F00040214908602048D3
:10473000006810F00040059005981E48006850F091
:1047400010001C4908601B48006810F0100005901C
:1047500005981848006850F0080016490860154888
:10476000006810F0080005900598032000900220D2
:1047700001900020029000200390082004906946D8
:104780000D48FEF763FE4FF40040009002200190B8
:1047900000200290002003900820049069460748FA
:1047A000FEF754FE36B010BD007C004098BA0224DB
:1047B000E8440258E044025800100258000C025825
:1047C00080B51148006810F10F3F0CD05FF0F03059
:1047D0000D49086003F0C6F903F0FEF90B480068C4
:1047E000401C0A4908605FF0F0300749086008483B
:1047F0000068FEF7CAFC00200349086003F01CFAB9
:1048000003F038FA01BD00BF8801002420C502244E
:1048100000C5022480B51849086018491648006888
:10482000091A17480160342000901548036812489F
:1048300002681449144803F07DFA02BD38B504003B
:104840000B0022006946104803F0E4FA002801D06A
:10485000002006E00022009D2100280000F0C6F89C
:10486000009832BD80B50021FFF7E8FF02BD80B59A
:1048700003F01CFB01BD000078C4022400000824E2
:104880007CC40224A8A8020890C202242DE9F44F97
:1048900086B004000F009A46109DDDF84480DDF8D4
:1048A00048900026002C01D10E267AE01698BC28EC
:1048B00001D00E2675E0EFF3108072B64549096805
:1048C000491C444A116080F3108800204249D1F805
:1048D00000B029004144491E002216E0DBF80C30EC
:1048E0009D4205D3DBF810309D4201D20025012006
:1048F000DBF80C30994205D3DBF81030994201D235
:1049000000250120DBF888B0521C344B1B689A420A
:1049100004D25C4500D101200128DFD1EFF31080E3
:1049200072B62C490968491E2A4A116080F3108822
:1049300003F0E6FA5C4501D10E2632E0002D01D1EC
:1049400003262EE00698002801D1032629E0B8F1BD
:10495000800F01D2052624E0B9F1200F01D30F26E4
:104960001FE01398814501D218261AE015980228F5
:1049700001D3102615E01A4800681A49884200D170
:10498000132619480068EFF305810843002808D072
:1049900015480168EFF305800143B1F1F03F00D203
:1049A0001326002E11D153463900159805901498FE
:1049B000049013980390CDF80890CDF804800095EA
:1049C000069A200003F0FAFA0600300007B0BDE8AE
:1049D000F08F00BF20C5022410C5022414C5022494
:1049E00008C502243CB902248801002462F30F2286
:1049F00062F31F42401810F0030308D0C91A1FD3F6
:104A0000DB0748BF00F8012D28BF20F8022D130056
:104A100030B414461546103928BF20E93C00FAD8B6
:104A2000490728BF20E90C0048BF40F8042D890041
:104A300028BF20F8022D48BF00F8012D30BC704778
:104A4000C91818BF00F8012DCB0728BF00F8012DA9
:104A500070478268521C8260426832B10268531CFF
:104A6000036011704168491E4160704710B5DFF85E
:104A70006410096849070AD4DFF85810096811F072
:104A80000701814201D001201CE000201AE0DFF87C
:104A900044100968C908C9000843DFF838100860E5
:104AA000FDF734F90400DFF830000068800408D412
:104AB000FDF72CF9001B40F2E9318842F3D30120C5
:104AC00000E0002010BD0348006850F080700149EC
:104AD000086070470C4802580448025803480068B0
:104AE00050F4807001490860704700000048025887
:104AF00038B50400002C01D1012076E32078C007EE
:104B000040F18180DFF8E406006810F03800DFF83B
:104B1000E0160968102805D018280DD111F00301FE
:104B2000022909D1DFF8CC06006880036BD56068E4
:104B3000002868D1012058E36068B0F5803F08D1B3
:104B4000DFF8B006006850F48030DFF8A81608607F
:104B500038E06068002810D1DFF89806006830F46B
:104B60008030DFF890160860DFF88806006830F4BF
:104B70008020DFF88016086024E06068B0F5A02F80
:104B800010D1DFF87006006850F48020DFF864165A
:104B90000860DFF86006006850F48030DFF85416D3
:104BA00008600FE0DFF84C06006830F48030DFF872
:104BB00044160860DFF83C06006830F48020DFF817
:104BC00034160860606800280ED0FDF79FF80500D5
:104BD000DFF820060068800315D4FDF797F8401B26
:104BE0006528F5D3032000E3FDF790F80500DFF812
:104BF00004060068800306D5FDF788F8401B652889
:104C0000F5D30320F1E22078800743D5DFF8DC05F7
:104C1000006810F03800DFF8D8150968002804D0C3
:104C2000182857D111F0030F54D1DFF8C8050068D8
:104C3000400704D5E068002801D10120D5E2FEF745
:104C40004FFD41F20401884219D2206940280AD15F
:104C5000DFF8A405006830F47C3050F40030DFF851
:104C60009815086016E0DFF89005006830F47C3095
:104C7000216950EA0130DFF8801508600AE0DFF8AA
:104C80007805006830F0FE40216950EA0160DFF8E5
:104C9000681508602078C00640F1A680DFF84C0552
:104CA000006810F03800DFF848150968082807D0B8
:104CB000182840F0B78011F00301012940F0B280BC
:104CC000DFF830050068C00563D5E069802860D052
:104CD00001208AE2E068002844D0DFF81805016866
:104CE00031F01901E0680143DFF808050160FDF7C4
:104CF0000DF80500DFF8FC040068400706D4FDF756
:104D000005F8401B0328F5D303206EE2FEF7E8FC0C
:104D100041F20401884219D2206940280AD1DFF803
:104D2000D804006830F47C3050F40030DFF8C81448
:104D3000086016E0DFF8C004006830F47C302169B8
:104D400050EA0130DFF8B01408600AE0DFF8A80488
:104D5000006830F0FE40216950EA0160DFF89814E5
:104D6000086097E7DFF88C04006840084000DFF82F
:104D700084140860FCF7CAFF0500DFF878040068B7
:104D8000400787D5FCF7C2FF401B0328F5D303205B
:104D90002BE2FEF7A5FC41F20401884219D2206AF9
:104DA00020280AD1DFF85004006830F0F84050F0B5
:104DB0008040DFF84414086016E0DFF83C04006827
:104DC00030F0F840216A50EA8160DFF82C14086066
:104DD0000AE0DFF82804006830F07C50216A50EACD
:104DE0000160DFF8181408602078000740F18E8019
:104DF0006069002873D0DFF80804006850F00100F3
:104E0000DFF8FC130860FCF781FF0500DFF8F00312
:104E1000006880077AD4FCF779FF401B0328F5D39C
:104E20000320E2E1E069002842D0DFF8C80300680F
:104E300050F08000DFF8BC130860FCF767FF050046
:104E4000DFF8B0030068C00506D4FCF75FFF401B25
:104E50000328F5D30320C8E1FEF742FC41F2040128
:104E6000884219D2206A20280AD1DFF88C03006812
:104E700030F0F84050F08040DFF87C13086016E016
:104E8000DFF87403006830F0F840216A50EA81606E
:104E9000DFF8641308600AE0DFF86003006830F0B0
:104EA0007C50216A50EA0160DFF8501308609BE7EC
:104EB000DFF84003006830F08000DFF83813086046
:104EC000FCF724FF0500DFF82C030068C0058BD534
:104ED000FCF71CFF401B0328F5D3032085E1DFF816
:104EE0002003006840084000DFF814130860FCF756
:104EF0000DFF0500DFF808030068800706D5FCF702
:104F000005FF401B0328F5D303206EE120788006BF
:104F10002AD5A069002813D0B648006850F4805004
:104F2000B4490860FCF7F2FE0500B248006880044E
:104F30001AD4FCF7EBFE401B0328F6D3032054E100
:104F4000AC48006830F48050AA490860FCF7DEFEE7
:104F50000500A8480068800406D5FCF7D7FE401B72
:104F60000328F6D3032040E1207840076CD5A548FC
:104F7000006850F48070A3490860FCF7C7FE050084
:104F8000A0480068C00506D4FCF7C0FE401B652899
:104F9000F6D3032029E1A068012806D19A480068C9
:104FA00050F00100984908602BE0A06800280CD15F
:104FB000954800684008400093490860924800689E
:104FC00030F00400904908601BE0A06805280CD16F
:104FD0008D48006850F004008B4908608A480068DA
:104FE00050F00100884908600BE0874800684008DD
:104FF0004000854908608448006830F00400824918
:105000000860A06800280FD0FCF780FE05007E48ED
:105010000068800718D4FCF779FE401B41F2893103
:105020008842F4D30320E0E0FCF770FE05007648E8
:105030000068800708D5FCF769FE401B41F2893102
:105040008842F4D30320D0E0606A002800F0CC80CE
:105050006648006810F03800182800F09A80606AEE
:10506000022840F082806348006830F08070614917
:105070000860FCF74BFE05005E480068800106D51D
:10508000FCF744FE401B0328F6D30320ADE058484C
:1050900001685E480140A06A0143E06A51EA0011DC
:1050A00053480160206B401EC005C00D616B491E56
:1050B000490211F47E410843A16B491E090411F411
:1050C000FE010843E16B491E090611F0FE41084349
:1050D0004F4908604F480068400840004D4908604B
:1050E0004D4800686FF3CF00A16C50EAC1004A49F7
:1050F00008604848016831F00C01206C01434548C4
:1051000001604448016831F00201606C014341488C
:1051100001604048006850F480303E4908603D48D6
:10512000006850F400303B4908603A48006850F489
:105130008020384908603748006850F00100354940
:1051400008602C48006850F080702A490860FCF71D
:10515000DDFD040027480068800145D4FCF7D6FD3A
:10516000001B0328F6D303203FE02248006830F0FC
:10517000807020490860FCF7C9FD04001D480068E4
:10518000800131D5FCF7C2FD001B0328F6D30320B4
:105190002BE0174800681E490968626A012A21D07D
:1051A00010F00302A36A9A421CD1C0F30510E26A10
:1051B000904217D1C805C00D226B521E904211D1EA
:1051C000C1F34620626B521E90420BD1C1F30640E0
:1051D000A26B521E904205D1C1F30660E16B491EDD
:1051E000884201D0012000E0002032BD1044025866
:1051F0002844025800440258044402580C440258FF
:105200007444025800480258704402580CFCFFFFD6
:10521000304402582C440258344402580348006871
:10522000034909784018014908607047C0C4022446
:105230001004002481B00748006850F002000549BE
:1052400008600448006810F002000090009801B067
:10525000704700BFF444025810B504000120002C30
:105260004FD094F82100002805D1002084F82000B8
:105270002000FEF7C3FB022084F82100CA20216829
:105280004862532021684862200000F025F901009F
:10529000C9B200292BD120688168DFF8E002014003
:1052A000206881602068816860680143206901434B
:1052B000A069014320688160A068E16851EA00416B
:1052C00020680161200000F028F90100C9B200291E
:1052D0000DD12168C96C890889002268D1642168D0
:1052E000CA6CE1690A4361690A432168CA64FF2103
:1052F000226851620100C9B2002902D1012184F85B
:105300002110C0B210BDF8B505000E00140095F8CC
:105310002000012801D1022064E0012085F820004E
:10532000022085F82100CA20296848625320296894
:105330004862280000F0D0F80100C9B2002943D12A
:10534000002C1BD128688068400601D40020F07032
:10535000307800F01DF90700707800F019F90400AA
:10536000B07800F015F9FFB2E4B2240254EA074421
:10537000C0B20443F07854EA80540FE02868806893
:10538000400601D40020F07030787478240254EA8A
:105390000044B0780443F07854EA8054DFF8E00128
:1053A0000440286804602868806830F480202968F8
:1053B000886028688168F068014330690143286883
:1053C0008160280000F0A9F8FF212A6851620100DD
:1053D000C9B2002902D1012185F82110002185F8E8
:1053E0002010C0B2F2BDF8B504000D0094F8200002
:1053F000012801D1022054E0012084F8200002207D
:1054000084F82100002A07D16878C00604D568789E
:1054100010F0EF000A306870002A15D1E87800F02B
:10542000B7F80700687800F0B3F80600A87800F035
:10543000AFF8FFB2F6B2360256EA0746C0B20643EC
:10544000287856EA403609E0E8786E78360256EA5F
:105450000046A8780643287856EA4036CA202168D4
:105460004862532021684862200000F035F80100AE
:10547000C9B2002907D1DFF80C0106402068466058
:10548000200000F04AF8FF21226851620100C9B2F1
:10549000002902D1012184F82110002184F8201074
:1054A000C0B2F2BD38B504002068C06830F0A0007A
:1054B0002168C860FCF72AFC05002068C0688006E7
:1054C00008D4FCF723FC401B40F2E9318842F4D3B6
:1054D000032000E0002032BD70B5040000252068E4
:1054E000C068400616D45FF0FF302168C860FCF742
:1054F0000DFC06000AE0FCF709FC801B40F2E931D4
:10550000884203D30325032084F821002068C06863
:105510004006F0D52800C0B270BD38B504000025A3
:105520001948006830F040001749086017480068C3
:10553000800609D42000FFF7B5FF002819D003200A
:1055400084F82100032514E01048006830F02000A2
:105550000E4908602000FFF7A5FF002803D00320B4
:1055600084F8210003250948006850F0200007490D
:1055700008602800C0B232BD00000000BFFF8FFFEE
:105580007F7F7F003FFFFF000C400058084000581D
:10559000002101E0491C0A380200D2B20A2AF9D2DD
:1055A00050EA0110C0B27047826832F47C12114395
:1055B00081607047826832F0E07211438160704709
:1055C000806810F0E0707047603010EB8100016877
:1055D00011F0004112F0F8421A430A43026070478A
:1055E000036933F4F04311F01F0112FA01F119437A
:1055F00001617047603010EB8100016821F00041CB
:105600000A430260704730B410F13003080080098B
:1056100010F00C00C3181C681F2511F01F008540F6
:10562000AC43C2F3846011F01F0110FA01F1214371
:10563000196030BC704730B414300B00DB0D13F030
:1056400004031818036807240D002D0D15F01F051D
:10565000AC40A343090D11F01F0112FA01F11943E7
:10566000016030BC704710B4D0F8C0400B031B0B76
:105670009C43DFF8C43212F01802D34019400903EA
:10568000090B2143C0F8C01010BC70478268DFF8D6
:10569000AC120A40826070478068400F10F0010031
:1056A00070478268DFF898120A4052F08052826098
:1056B00070478068000F10F001007047806810F09C
:1056C000010070478068800810F001007047806812
:1056D000C00810F0010070477CB5040000260020CF
:1056E0000090002C01D1012025E1E068002801D0C4
:1056F000207F0128606D002807D12000FEF7DDFA29
:105700000020A065002084F850002068FFF7C4FF47
:10571000002802D02068FFF7B9FF2068FFF7C9FF13
:10572000002812D12068FFF7BCFFDFF818020068DC
:10573000DFF81412B0FBF1F0401C009002E000987A
:10574000401E009000980028F9D12068FFF7B1FFB3
:10575000002808D1606D50F010006065A06D50F019
:105760000100A06501262068FFF7ACFF616DC90646
:1057700000F1DA80002840F0D780606D30F480704E
:1057800050F0020060652068FFF798FF002836D1CE
:105790002068DFF8B811884204D02068DFF8B01123
:1057A000884202D1DFF8AC0101E0DFF8AC01DFF89C
:1057B000A41188420AD1DFF89401FFF77FFF0500AA
:1057C000DFF88C01FFF77AFF054304E0DFF88C0176
:1057D000FFF774FF0500002D11D12068DFF86C1170
:1057E000884204D02068DFF86811884202D1DFF8CF
:1057F000640101E0DFF860016168FFF7D5FEFDF7A5
:105800006FFF41F2040188420ED3A06810280BD12B
:10581000607D216B51EA4031A0680143207F51EA4D
:10582000004151F00C0108E0607D216B51EA4031EC
:10583000A0680143207F51EA0041207F012803D165
:10584000206A401E51EA4041606A002805D0606A23
:1058500010F478700143A06A01432068C268DFF841
:105860000001024011432068C1602068FFF72AFF51
:1058700005002068FFF72BFF0543002D3AD1207D5E
:10588000E16A51EA80312068C268DFF8D80002403E
:1058900011432068C16094F83800012819D1606A6A
:1058A000002802D0A06A0028FFD120680169DFF833
:1058B000B8000140E06B401E51EA0041206C0143FA
:1058C000606C0143A06C014351F00101206801614B
:1058D00005E02068006940084000216808612068F0
:1058E000016921F07041606B014320680161200073
:1058F00000F078FAE068012809D12068006B0009FF
:105900000001A169491E08432168086305E0206879
:10591000006B0009000121680863606D30F002002F
:1059200050F00100606504E0606D50F010006065AB
:1059300001263000C0B276BDFFFF0F00C0FFFF5F41
:10594000C0FFFF7F80010024400D030000200240C3
:105950000021024000230240006302580060025808
:1059600003C0F0FFFCBFFFFF1EF800FC2DE9FC4167
:1059700005000F0000260020009095F8380001284F
:10598000FFD0F868DFF8501488420BD12868DFF8A0
:105990003C1488422868DFF8381488422868DFF809
:1059A0003C14884295F85000012801D102200BE2F6
:1059B000012085F850002868FFF784FE002840F099
:1059C000F9813868000303D13868C0F3846004E0CB
:1059D000386890FAA0F0B0FA80F02968C96901220D
:1059E00010F01F0012FA00F008432968C8613A68F5
:1059F00079682868FFF707FE2868FFF763FE040050
:105A00002868FFF764FE0443002C40F08680BA68E3
:105A100039682868FFF70FFEDFF8C403006810F04C
:105A20007040B0F1805F09D178692968C968C1F315
:105A30008201C9B24B0010FA03F317E02868C0686E
:105A4000C00609D478692968C968C1F38201C9B25E
:105A50004B0010FA03F309E078692968C9688908DE
:105A600011F00401C9B24B0010FA03F3386904289D
:105A70001BD03A6839692868FFF7A6FD787E0128AF
:105A800002D15FF0004200E0002239692868FFF788
:105A9000B1FD387E012802D14FF4006200E00022FF
:105AA00039692868FFF79CFD37E02868006E10F020
:105AB000F8403968B0EB816F05D12868006E20F09E
:105AC0000040296808662868406E10F0F840396880
:105AD000B0EB816F05D12868406E20F00040296846
